:100000000C9465000C948D000C948D000C94920A55
:100010000C94920A0C94920A0C948D000C948D000E
:100020000C948D000C948D000C948D000C948D001C
:100030000C948D000C94E5080C948D000C948D00AC
:100040000C94230C0C948D000C94230F0C94550FDE
:100050000C948D000C948D000C948D000C948D00EC
:100060000C9479050C948D0000000008000201003A
:100070000003040700000000000000000102040863
:100080001020408001020408102001020408102002
:10009000040404040404040402020202020203032E
:1000A00003030303000000002300260029000000D2
:1000B0000000250028002B0000000000240027007D
:1000C0002A00BB014C05850FD40111241FBECFEFC0
:1000D000D8E0DEBFCDBF12E0A0E0B1E0ECEDF8E289
:1000E00002C005900D92A03EB107D9F724E0A0EE22
:1000F000B2E001C01D92A73EB207E1F710E0C8ECE4
:10010000D0E004C02297FE010E945814C23CD107DF
:10011000C9F70E94C90F0C9461140C9400008091DF
:10012000E6029091E70201969093E7028093E6023F
:10013000089560E080910A010E94440D60E0809182
:1001400008010E94440D60E0809106010E94440D68
:1001500060E0809104010E94440D61E08091020101
:100160000E94440D61E0809100010E94440D40E036
:1001700055E36CE070E087EF93E00E9474092FEF85
:100180003FEFA9016FE870E087EF93E00E948409D8
:1001900040E05BE460E070E082E093E00E94950B59
:1001A00026E040E05BE460E070E08AE494E00E94D6
:1001B000C10EE0912103F09122030480F581E02D2E
:1001C00020E044E064E181E293E0099581E293E07C
:1001D0000E94CB0640E065E081E293E00E94D206F7
:1001E0006DE071E081E293E00E94161081E293E0FD
:1001F0000E94CB0640E060E081E293E00E94D206DC
:1002000067E171E081E293E00E94161041E060E056
:1002100081E293E00E94D2066FE171E081E293E017
:100220000E94161042E060E081E293E00E94D20654
:1002300067E271E081E293E00E94161043E060E023
:1002400081E293E00E94D2066FE271E081E293E0E6
:100250000C941610BC01882777FD8095982F0E947A
:10026000D21220E030E040EA50E40E94861320E001
:1002700030E048EC52E40E94861320E030E040E891
:100280005AE30E9486136093FE027093FF028093EC
:1002900000039093010308950F931F93BC018827D7
:1002A00077FD8095982F0E94D21220E030E040EA3E
:1002B00050E40E94861320E030E040E85AE30E94B8
:1002C00086136093F8027093F9028093FA02909378
:1002D000FB0200E010E020EC3FE30093F0021093FB
:1002E000F1022093F2023093F30200E010E020E8E4
:1002F0003FE30093EC021093ED022093EE02309363
:10030000EF0200E010E020EA30E40093F4021093E2
:10031000F5022093F6023093F70200E71DE32AE886
:100320003DE30093E8021093E9022093EA02309340
:10033000EB0223E333E343EF5EE30E94CF1120E7B8
:100340003DE34AE85DE30E94CE112CEE31E548E33F
:100350005DE30E9437122AEA35E848E05EE30E9436
:1003600037120E949F127093FD026093FC02CB0132
:100370001F910F910895CF92EF920F9385E0C82EB1
:1003800094E0E92E03E022E046E067E081E293E0BA
:100390000E943C0820E041E060E082E093E00F91A1
:1003A000EF90CF900C94650B82E093E00C940C0BD3
:1003B0008F929F92AF92BF92CF92DF92EF92FF9275
:1003C0000F931F93CF93DF937C01EB016A014801E8
:1003D000590143E068E081E293E00E94D20667E3BE
:1003E00071E081E293E00E9416108AE494E00E949A
:1003F000DE0D892B09F497C08AE494E00E94F70D82
:10040000682F82E093E00E94C00964E471E082E01A
:1004100093E00E94161064E471E08AE494E00E9484
:10042000231064EF71E080E090E00E94900C6FE494
:1004300071E082E093E00E9416106FE471E08AE4BC
:1004400094E00E94231064EF71E080E090E00E944D
:10045000900C68E671E082E093E00E9416106DEA6D
:1004600071E082E093E00E94161064EC71E082E09B
:1004700093E00E94161065ED71E082E093E00E9427
:1004800016106EED71E082E093E00E9416104AE0D3
:1004900050E0B60182E093E00E94D81065EE71E072
:1004A00082E093E00E94161022E030E0B501A40142
:1004B00082E093E00E94CB1164EF71E082E093E070
:1004C0000E9416104AE050E0B70182E093E00E94DB
:1004D000D8106EEF71E082E093E00E9416104AE0BF
:1004E00050E0BE0182E093E00E94D81064EF71E01A
:1004F00080E090E00E94900C6AE182E093E00E942C
:10050000C00964EF71E080E090E00E94900C43E04D
:1005100068E081E293E00E94D20668E072E081E246
:1005200093E00E94161068EC70E080E090E0DF91AC
:10053000CF911F910F91FF90EF90DF90CF90BF90E0
:10054000AF909F908F900C94900C8F929F92AF924F
:10055000BF92CF92DF92EF92FF920F931F93CF93B0
:10056000DF93EC017B016A01480159018857910929
:100570000A9728F4CB018E5691090A9798F060E00B
:10058000809102010E947D0D61E0809100010E9436
:100590007D0D43E068E081E293E00E94D20664E1D1
:1005A00072E03DC0CA01CC97449798F060E080911A
:1005B00002010E947D0D61E0809100010E947D0D8D
:1005C00043E068E081E293E00E94D20666E372E0D5
:1005D00026C020E030E048E152E4C501B4010E94A9
:1005E000821387FF0AC020E030E040E152E4C501F9
:1005F000B4010E94331287FF42C060E08091020183
:100600000E947D0D61E0809100010E947D0D43E01C
:1006100068E081E293E00E94D20668E472E081E241
:1006200093E00E94161064E670E080E090E00E9483
:10063000900C43E068E081E293E00E94D20665E21C
:1006400072E081E293E00E94161064EF71E080E0B6
:1006500090E00E94900C95018401A601B701CE01A3
:100660000E94D801DF91CF911F910F91FF90EF90E1
:10067000DF90CF90BF90AF909F908F90089543E010
:1006800068E081E293E00E94D20669E572E081E2CF
:1006900093E00E94161060E0809100010E947D0DA1
:1006A00061E080910201DF91CF911F910F91FF9046
:1006B000EF90DF90CF90BF90AF909F908F900C9471
:1006C0007D0DAF92BF92CF92DF92EF92FF920F9388
:1006D0001F93CF93DF9380910A010E94FE0C0E942A
:1006E0002A016B017C01809108010E94FE0C0E948E
:1006F0004C01EC01809106010E94FE0C0E944C010D
:100700005C0140E068E081E293E00E94D20622E0D2
:1007100030E0B701A60181E293E00E94CB1140E0F6
:100720006EE081E293E00E94D20662E471E081E231
:1007300093E00E94161042E068E081E293E00E949C
:10074000D2064AE050E0BE0181E293E00E94D81058
:1007500042E06CE081E293E00E94D20667E672E03C
:1007600081E293E00E94161042E06EE081E293E0A5
:100770000E94D2064AE050E0B50181E293E00E9477
:10078000D810809104010E94B30D8130910539F495
:100790002091E2023091E302232B09F4D2C0809130
:1007A00004010E94B30D892B39F48091E2029091EB
:1007B000E302019709F4D4C08091E6029091E70228
:1007C000029709F09CC02091E4023091E5024EE1CD
:1007D000429FC001439F900D11249093E1028093AA
:1007E000E00241E068E081E293E00E94D20660917D
:1007F000E0027091E1024AE050E081E293E00E9461
:10080000D81041E06BE081E293E00E94D20669E6F5
:1008100072E081E293E00E9416104091E002509154
:10082000E10297018601B501CE010E94A50264EFA5
:1008300071E080E090E00E94900C1092E70210922C
:10084000E6021092E5021092E4021092E302109286
:10085000E2021092E1021092E00281E293E00E9433
:10086000CB06E0912103F09122030480F581E02D75
:1008700020E044E064E181E293E0099581E293E0C5
:100880000E94CB0640E065E081E293E00E94D20640
:100890006DE071E081E293E00E94161081E293E046
:1008A0000E94CB0640E060E081E293E00E94D20625
:1008B00067E171E081E293E00E94161041E060E0A0
:1008C00081E293E00E94D2066FE171E081E293E061
:1008D0000E94161042E060E081E293E00E94D2069E
:1008E00067E271E081E293E00E94161043E060E06D
:1008F00081E293E00E94D2066FE271E014C041E011
:1009000068E081E293E00E94D20664E772E081E24F
:1009100093E00E94161043E068E081E293E00E94B9
:10092000D20664E772E081E293E0DF91CF911F91FC
:100930000F91FF90EF90DF90CF90BF90AF900C940D
:1009400016102091E4023091E5022F5F3F4F309363
:10095000E5022093E4029093E3028093E2022CCF1D
:100960001092E3021092E20227CF8091670390E099
:1009700020916803821B910908952091680380915A
:100980006703281750F4E22FF0E0E759FC4F80810D
:1009900090E02F5F2093680308958FEF9FEF0895F5
:1009A000E091680380916703E81730F4F0E0E759BD
:1009B000FC4F808190E008958FEF9FEF0895089598
:1009C000CF92DF92EF92FF920F931F93CF93DF931B
:1009D0007C01CB018A0120914403222389F0EB01A1
:1009E0006B01C40ED51ECC15DD0569F06991D701E8
:1009F000ED91FC910190F081E02DC7010995F3CFB5
:100A0000642F0E945005C801DF91CF911F910F9173
:100A1000FF90EF90DF90CF900895CF93DF931F92D8
:100A2000CDB7DEB76983209144032223D1F0209112
:100A30004503203240F021E030E0FC013383228383
:100A400080E090E015C080914603E82FF0E0E95B7C
:100A5000FC4F998190838F5F809346038093450379
:100A600005C061E0CE0101960E94500581E090E052
:100A70000F90DF91CF910895FC011382128248EE0E
:100A800053E060E070E0448355836683778385E8B4
:100A900092E091838083089588E393E00C943C0571
:100AA000613298F42091F603243089F46093AB030B
:100AB000FC018DEA93E0DC012A2F281B261718F48D
:100AC00021912D93F9CF80E0089581E0089582E08F
:100AD000089585ED8093BC008091BC0084FDFCCF1F
:100AE0001092F603089585EC8093BC001092F603F3
:100AF00008951F920F920FB60F9211242F933F93D8
:100B00004F935F936F937F938F939F93AF93BF9315
:100B1000EF93FF938091B900887F803609F49CC0E1
:100B200068F5883209F45BC090F4803109F454C050
:100B300038F4882309F4F5C0883009F44DC0F5C0B5
:100B4000883109F44CC0803209F45DC0EEC08034B5
:100B500009F468C048F4803309F455C0883309F0BB
:100B6000E4C080938903A8C0803509F44FC088355C
:100B700009F45DC0883409F0D8C0D5C0883909F4BB
:100B8000C6C0A8F4883709F467C038F4883609F479
:100B900063C0803709F460C0C8C0883809F4B7C0A2
:100BA000803909F45FC0803809F0BFC05BC0803B6A
:100BB00009F485C038F4803A09F466C0883A09F42B
:100BC0007EC0B3C0803C09F4A6C0883C09F4A3C031
:100BD000883B09F489C0A9C08091F50310C09091A9
:100BE000CE038091CD03981770F5E091CE0381E09C
:100BF0008E0F8093CE03F0E0E153FC4F8081809311
:100C0000BB0085EC85C0809389038DC0E091CE0345
:100C100081E08E0F8093CE038091BB00F0E0E15322
:100C2000FC4F80839091CE038091CD036DC0E09105
:100C3000CE0381E08E0F8093CE038091BB00F0E065
:100C4000E153FC4F80838091F40381116CC081E0FB
:100C50008093F30384EA60C083E08093F6031092EC
:100C60008A03CFCF80918A03803208F050C0E09190
:100C70008A0381E08E0F80938A038091BB00F0E0AD
:100C8000E557FC4F8083BDCF80918A03803230F4DA
:100C9000E0918A03F0E0E557FC4F10820E9469055D
:100CA00060918A0370E0E091EF03F091F0038BE82C
:100CB00093E0099510928A030E94730536C084E080
:100CC0008093F6031092AC031092AB03E091F10312
:100CD000F091F20309958091AB03811105C081E089
:100CE0008093AB031092AD03E091AC0381E08E0FD3
:100CF0008093AC03F0E0E355FC4F80818093BB0010
:100D00009091AC038091AB03981708F47ACF85E8F3
:100D10008093BC000AC085EC8093BC001092F6035F
:100D200004C0109289030E946905FF91EF91BF9161
:100D3000AF919F918F917F916F915F914F913F9173
:100D40002F910F900FBE0F901F9018950895089542
:100D5000DC01ED91FC910284F385E02D41E00995E1
:100D600081E090E00895FC011382128225E932E0CF
:100D7000318320830895DC01ED91FC910084F1859D
:100D8000E02D6FEF0994DC01ED91FC910284F38575
:100D9000E02D40E0099461E00E94C30680ED97E0F9
:100DA0000C94B80CCF93DF93CDB7DEB728970FB66E
:100DB000F894DEBF0FBECDBF1D8220E42E8334E148
:100DC0003F8334E5388719822A8320E12B8320E58D
:100DD0002C83FC012781421710F04FEF420FFC01DA
:100DE000308550E0FE01E40FF51F303121F424304E
:100DF00011F4218101C02581260F2068622F2896D9
:100E00000FB6F894DEBF0FBECDBFDF91CF910C942B
:100E1000C306FC016581262F246025836C600C9439
:100E2000C306CF93DF93EC01423018F08C818860C9
:100E30008C834F836887222329F0413019F48C81F9
:100E400084608C8364E670E080E090E00E94900C07
:100E50006C8164FD31C0E881F9810284F385E02D65
:100E600042E063E0CE01099584E991E10E94B80C6B
:100E7000E881F9810284F385E02D42E063E0CE0150
:100E8000099586E990E00E94B80CE881F981028416
:100E9000F385E02D42E063E0CE01099586E990E01C
:100EA0000E94B80CE881F9810284F385E02D42E0CC
:100EB00062E0CE01099516C06062CE010E94C306B1
:100EC00084E991E10E94B80C6C816062CE010E94BD
:100ED000C30686E990E00E94B80C6C816062CE0186
:100EE0000E94C30686E990E00E94B80C6C816062A3
:100EF000CE010E94C3068CE390E00E94B80C84E00F
:100F00008D83CE010E940907CE010E94CB0682E0AC
:100F10008E8366E0CE010E94C306CE01DF91CF91A1
:100F20000C94BB06FC0186898F3F79F021853285C0
:100F3000662319F0232B31F403C02130310511F45D
:100F400061E001C060E00C947D0D0895FF920F9365
:100F50001F93CF93DF93EC01F62E8A0161E08F2D72
:100F60000E94440DFE8A1A870987E881F98100846E
:100F7000F185E02D60E0CE01DF91CF911F910F91BF
:100F8000FF9009946F927F928F92AF92CF92EF92DF
:100F9000FF920F931F93CF93DF93CDB7DEB73C0142
:100FA000F62EFC01438724870587E686C786A08A3C
:100FB000818A8E85828B8F85838B8889848B8989B2
:100FC000858B00E010E0F301E00FF11F61E0868502
:100FD0000E94440D0F5F1F4F04301105A1F7FF2041
:100FE00069F061E0F30183850E94440DF30184857B
:100FF0008F3F99F061E00E94440D0FC000E010E0C7
:10100000F301E00FF11F61E082890E94440D0F5F40
:101010001F4F04301105A1F7E4CF61E0F30185858E
:101020000E94440DFF2019F0F301148203C080E1F7
:10103000F301848360E0F30183850E947D0D60E00D
:10104000F30185850E947D0DF30184858F3F19F0A2
:1010500060E00E947D0D8FEFF301868B1286118672
:10106000DF91CF911F910F91FF90EF90CF90AF90B4
:101070008F907F906F9008956F927F928F92AF9232
:10108000CF92EF920F93CF93DF9300D01F92CDB703
:10109000DEB73C012B834A8369830E94B30685EA4D
:1010A00092E0F301918380831F921F921F921F92FF
:1010B0008C2CAE2CC02E2B81E22E4A81042F2FEFD8
:1010C0006981462F61E0C3010E94C2070F900F9013
:1010D0000F900F900F900F900F90DF91CF910F9185
:1010E000EF90CF90AF908F907F906F900895CF93B7
:1010F000DF93EC0161E08D850E947D0D60E08D85C0
:10110000DF91CF910C947D0DCF92DF92EF92FF9201
:101110000F931F93CF93DF931F92CDB7DEB78C0150
:10112000C12CD12CE62EF12CC416A0F4B7010C2C46
:1011300002C0759567950A94E2F76170F801EC0DAD
:10114000FD1D868549830E947D0D8FEFC81AD80A40
:101150004981EACFC8010F90DF91CF911F910F9184
:10116000FF90EF90DF90CF900C9477080F931F9330
:10117000CF93DF93EC01162F042F61E0413009F08B
:1011800060E08B850E947D0D8C858F3F19F060E0BB
:101190000E947D0D023081F08C8184FF02C048E006
:1011A0000CC0612F70E084E0759567958A95E1F732
:1011B00044E0CE010E94840844E0612FCE01DF911B
:1011C000CF911F910F910C9484081F920F920FB62C
:1011D0000F9211242F933F934F935F936F937F93BD
:1011E0008F939F93AF93BF93EF93FF93E091FB0394
:1011F000F091FC030995FF91EF91BF91AF919F9101
:101200008F917F916F915F914F913F912F910F90AF
:101210000FBE0F901F901895FC01A3E0440F551FBF
:10122000661F771FAA95D1F74115510581E0680720
:10123000710514F481E00EC033E0759567955795FC
:1012400047953A95D1F74115510581E06807710539
:101250001CF482E0828331C023E075956795579531
:1012600047952A95D1F74115510581E06807710529
:1012700014F483E0EFCF92E0759567955795479505
:101280009A95D1F74115510581E06807710514F46D
:1012900084E0E0CF82E075956795579547958A95EC
:1012A000D1F785E082834115510581E0680771051A
:1012B00024F04FEF5FEF60E070E08FB78383F89426
:1012C00051834083509387004093860083818FBF72
:1012D00080918100887F809381008091810092813C
:1012E000892B8093810008951092800020E1209343
:1012F00081000C940C09E1E8F0E02081DC011296F9
:101300008C91282B208308950F931F93CF93DF9305
:10131000EC018B01BA01A901141615061606170671
:1013200014F40E940C091D830C8381E080936F00EC
:10133000CE01DF91CF911F910F910C947B092091E9
:101340003F043091400428173907B9F49091FD0308
:101350008091FE03981789F0E091FD03F0E0E150E1
:10136000FC4F80812091FD0330E02F5F3F4F2F73B2
:1013700033272093FD0390E008958FEF9FEF0895AA
:101380001F93CF93DF93DC015C968D919C915D97C9
:10139000009749F481E090E013969C938E93129706
:1013A00080E090E03BC05196ED91FC9152975096B1
:1013B0002C915097322F30951FB75E964C915E97C7
:1013C00041FB772770F941FD6095F89440817723C0
:1013D00011F0422B01C043234083EC012197F1F728
:1013E00048E0508160FF02C0522B01C0532350835C
:1013F000EC012197F1F76695415099F780817723A9
:1014000011F0832301C0822B80831FBF5C968D91D6
:101410009C915D970197F1F781E090E0DF91CF918A
:101420001F91089520913F043091400428173907F7
:1014300081F49091FD038091FE03981751F0E091A3
:10144000FD03F0E0E150FC4F8081992787FD9095E6
:1014500008958FEF9FEF089520913F04309140044D
:101460002817390771F48091FE032091FD0390E065
:10147000805C9F4F821B910960E470E00E94ED1335
:10148000089580E090E0089520913F043091400459
:101490002817390739F48FB7F8941092FE03109289
:1014A000FD038FBF0895E0913F04F0914004E817D9
:1014B000F90769F4A389B4899C918589809589236A
:1014C0008C931092400410923F0481E0089580E0D4
:1014D0000895CF93DF93EC018A8D9B8D892BF1F0DA
:1014E00080913F04909140048C179D07B9F00097BC
:1014F00011F00E94530A8E8D8E7F8E8F1092FE0304
:101500001092FD03D0934004C0933F04EB89FC8903
:1015100080819D89892B808381E001C080E0DF91FB
:10152000CF9108951F920F920FB60F9211242F930F
:101530003F934F935F936F937F938F939F93AF935B
:10154000BF93EF93FF93E0913F04F09140043097F5
:1015500009F451C0868DA685B785958581FF04C0A5
:101560008C91892329F447C08C91892309F043C0C9
:10157000A389B4899C918589809589238C938689D8
:1015800097890197F1F7208D318DA685B7857585EF
:1015900058E040E0C9010197F1F7842F90E095955C
:1015A0008795482F6C91672309F04068515091F757
:1015B000868D81FD40958091FE0390E001968F73AA
:1015C00099272091FD03281749F0A091FE03B0E070
:1015D000A150BC4F4C938093FE0303C0868D816065
:1015E000868F828D938D0197F1F7A389B4898C91B1
:1015F0009589892B8C93FF91EF91BF91AF919F912A
:101600008F917F916F915F914F913F912F910F90AB
:101610000FBE0F901F90189525EB32E0FC0131832F
:1016200020830C94530A1F93CF93DF93EC01162F62
:101630006E8D6695617081E06827812F0E947D0D17
:1016400061E0812F0E94440D812F90E0FC01E4585D
:10165000FF4FE491E88BFC01E057FF4FE491F0E08D
:10166000EE0FFF1FE255FF4F859194919A8B898B66
:10167000DF91CF911F9108951F93CF93DF93EC01DA
:10168000162F60E0812F0E94440D8E8D81FD04C0D5
:1016900061E0812F0E947D0D1C87812F90E0FC016D
:1016A000E458FF4FE491ED87FC01E057FF4FE491D0
:1016B000F0E0EE0FFF1FEC55FF4F859194919F874F
:1016C0008E87DF91CF911F910895FF920F931F9303
:1016D000CF93DF93EC01F62E522F1B821A8208EE75
:1016E00013E020E030E00C831D832E833F8385EBE5
:1016F00092E0998388831F8A1E8A198E188E1B8E0A
:101700001A8E1D8E1C8E8E8D8E7F50FB81F98E8FD2
:10171000642FCE010E94130B6F2DCE01DF91CF916C
:101720001F910F91FF900C943C0BCF93DF93EC0132
:101730009A01AB011B8E1A8E198E188E1F8A1E8A73
:1017400060E079E08DE390E00E942314C901243029
:10175000310520F0B9016350710902C061E070E009
:101760007D8F6C8FEC85E63108F068C0B901769505
:1017700067956431710518F06351710902C061E029
:1017800070E07F8B6E8B069718F0C901059702C039
:1017900081E090E0998F888FC901880F991F820F8F
:1017A000931F96958795969587958D30910510F0A6
:1017B0000C9702C081E090E09B8F8A8F2091680097
:1017C000E83050F091E0EE3008F490E081E001C0A4
:1017D000880F9A95EAF701C084E0822B8093680015
:1017E0002C85283038F02E3040F0263148F48CE635
:1017F00090E008C08DE690E005C08BE690E002C066
:1018000080E090E09C8B8B8B283030F481E001C02D
:10181000880F2A95EAF70DC0822F90E02E3010F441
:10182000089701C00E9791E001C0990F8A95EAF7D9
:10183000892F8D8B8C8D9D8D0197F1F7CE01DF91D6
:10184000CF910C94690A1F920F920FB60F92112438
:101850002F933F938F939F93AF93BF9380914204B5
:1018600090914304A0914404B09145043091410407
:1018700023E0230F2D3720F40196A11DB11D05C0D3
:1018800026E8230F0296A11DB11D209341048093E9
:10189000420490934304A0934404B0934504809180
:1018A000460490914704A0914804B09149040196E0
:1018B000A11DB11D8093460490934704A093480452
:1018C000B0934904BF91AF919F918F913F912F9118
:1018D0000F900FBE0F901F9018953FB7F89480910E
:1018E000460490914704A0914804B091490426B55C
:1018F000A89B05C02F3F19F00196A11DB11D3FBF48
:101900006627782F892F9A2F620F711D811D911DD7
:1019100042E0660F771F881F991F4A95D1F70895F7
:10192000CF92DF92EF92FF92CF93DF936B017C0116
:101930000E946D0CEB01C114D104E104F10489F0A3
:101940000E94CD110E946D0C6C1B7D0B683E734094
:1019500090F381E0C81AD108E108F108C851DC4FC2
:10196000EACFDF91CF91FF90EF90DF90CF90089575
:101970008230910538F0880F991F880F991F0597BD
:101980000197F1F70895789484B5826084BD84B599
:10199000816084BD85B5826085BD85B5816085BD6A
:1019A000EEE6F0E0808181608083E1E8F0E0108283
:1019B000808182608083808181608083E0E8F0E0C4
:1019C000808181608083E1EBF0E0808184608083AE
:1019D000E0EBF0E0808181608083EAE7F0E08081E5
:1019E0008460808380818260808380818160808345
:1019F0008081806880831092C10008958E3008F045
:101A00008E50877020910C0190E4299F9001112441
:101A1000822B80937C0080917A00806480937A008E
:101A200080917A0086FDFCCF80917800209179002A
:101A300090E0922B0895833081F028F4813099F062
:101A40008230A1F008958730A9F08830B9F0843051
:101A5000D1F4809180008F7D03C0809180008F77CA
:101A600080938000089584B58F7702C084B58F7D00
:101A700084BD08958091B0008F7703C08091B0003D
:101A80008F7D8093B0000895CF93DF9390E0FC01A9
:101A9000E458FF4F2491FC01E057FF4F84918823C5
:101AA00049F190E0880F991FFC01E854FF4FA59180
:101AB000B49182559F4FFC01C591D4919FB761119C
:101AC00008C0F8948C91209582238C93888182237E
:101AD0000AC0623051F4F8948C91322F30958323F0
:101AE0008C938881822B888304C0F8948C91822BFC
:101AF0008C939FBFDF91CF9108950F931F93CF9346
:101B0000DF931F92CDB7DEB7282F30E0F901E859F7
:101B1000FF4F8491F901E458FF4F1491F901E05708
:101B2000FF4F04910023C9F0882321F069830E94AC
:101B30001B0D6981E02FF0E0EE0FFF1FE255FF4F14
:101B4000A591B4919FB7F8948C91611103C0109541
:101B5000812301C0812B8C939FBF0F90DF91CF9188
:101B60001F910F910895CF93DF93282F30E0F90153
:101B7000E859FF4F8491F901E458FF4FD491F901DE
:101B8000E057FF4FC491CC2391F081110E941B0DAF
:101B9000EC2FF0E0EE0FFF1FEC55FF4FA591B49135
:101BA0002C912D2381E090E021F480E002C080E0C0
:101BB00090E0DF91CF9108950E945C14FC01818D2B
:101BC000228D90E0805C9F4F821B91098F73992733
:101BD0000895FC01918D828D981731F0828DE80F68
:101BE000F11D858D90E008958FEF9FEF0895FC0122
:101BF000918D828D981761F0828DDF01A80FB11D44
:101C00005D968C91928D9F5F9F73928F90E0089567
:101C10008FEF9FEF08958BE79FE0892B49F080E0DD
:101C200090E0892B29F00E947B0F81110C94000019
:101C30000895FC01848DDF01A80FB11DA35ABF4F89
:101C40002C91848D90E001968F739927848FA689BB
:101C5000B7892C93A089B1898C9180648C93938DE2
:101C6000848D981306C00288F389E02D80818F7DD2
:101C700080830895CF93DF93EC01888D8823C9F08A
:101C8000EA89FB89808185FD05C0A889B9898C9185
:101C900086FD0FC00FB607FCF5CF808185FFF2CF20
:101CA000A889B9898C9185FFEDCFCE010E94190ECC
:101CB000E7CFDF91CF910895CF92DF92FF920F93FC
:101CC0001F93CF93DF931F92CDB7DEB76C0181E0F6
:101CD000D60158968C9358975B969C915B975C962F
:101CE0008C915C97981307C05096ED91FC91519799
:101CF000808185FD2EC0F601038D10E00F5F1F4F20
:101D00000F731127F02EF601848DF81211C00FB653
:101D100007FCF9CFD6015096ED91FC915197808147
:101D200085FFF1CFC60169830E94190E6981EBCF4F
:101D3000838DE80FF11DE35AFF4F6083D6015B9658
:101D40000C935B975296ED91FC9153978081806242
:101D50000CC0D6015696ED91FC9157976083509632
:101D6000ED91FC91519780818064808381E090E0C7
:101D70000F90DF91CF911F910F91FF90DF90CF9047
:101D80000895BF92CF92DF92EF92FF92CF93DF93AD
:101D9000EC016A017B01B22EE889F98982E0808337
:101DA000411581EE580761057105A1F060E079E009
:101DB0008DE390E0A70196010E94011421503109A2
:101DC000410951095695479537952795211580E189
:101DD000380798F0E889F989108260E874E88EE1A4
:101DE00090E0A70196010E94011421503109410998
:101DF00051095695479537952795EC85FD85308394
:101E0000EE85FF852083188EEC89FD89B082EA89F2
:101E1000FB89808180618083EA89FB898081886079
:101E20008083EA89FB89808180688083EA89FB89D5
:101E300080818F7D8083DF91CF91FF90EF90DF9045
:101E4000CF90BF9008951F920F920FB60F9211245A
:101E50002F938F939F93EF93FF93E0915A04F09108
:101E60005B048081E0916004F091610482FD12C006
:101E70009081809163048F5F8F7320916404821737
:101E800051F0E0916304F0E0E65BFB4F958F8093A7
:101E9000630401C08081FF91EF919F918F912F91F9
:101EA0000F900FBE0F901F9018951F920F920FB6B4
:101EB0000F9211242F933F934F935F936F937F93D0
:101EC0008F939F93AF93BF93EF93FF938AE494E034
:101ED0000E94190EFF91EF91BF91AF919F918F9149
:101EE0007F916F915F914F913F912F910F900FBE16
:101EF0000F901F9018958AE494E00E94DE0D21E077
:101F0000892B09F420E0822F089510924D0410923D
:101F10004C0488EE93E0A0E0B0E080934E049093F0
:101F20004F04A0935004B093510485EC92E0909339
:101F30004B0480934A0485EC90E09093570480937F
:101F4000560484EC90E0909359048093580480ECFC
:101F500090E090935B0480935A0481EC90E090931E
:101F60005D0480935C0482EC90E090935F04809326
:101F70005E0486EC90E0909361048093600410927C
:101F8000630410926404109265041092660408952C
:101F900008950E94C30C0E94C80F0E949900CBE0D4
:101FA000DEE00E9461032097E1F30E940B0EF9CF5F
:101FB000CF92DF92EF92FF920F931F93CF93DF9315
:101FC0006C017A01EB01E60EF71E00E010E0CE1581
:101FD000DF0561F06991D601ED91FC910190F081EE
:101FE000E02DC6010995080F191FF1CFC801DF9137
:101FF000CF911F910F91FF90EF90DF90CF900895B8
:102000006115710581F0DB010D900020E9F7AD014C
:1020100041505109461B570BDC01ED91FC910280A8
:10202000F381E02D099480E090E008950C94001075
:10203000DC01ED91FC910190F081E02D099461EDBE
:1020400072E00C9400100F931F93CF93DF93EC0179
:102050000E9400108C01CE010E941F10800F911F62
:10206000DF91CF911F910F9108958F929F92AF9220
:10207000BF92CF92DF92EF92FF920F931F93CF9375
:10208000DF93CDB7DEB7A1970FB6F894DEBF0FBED2
:10209000CDBF7C01C42EE52FCB01D22E19A221E0A9
:1020A0002D1510F02AE0D22E8E010F5D1F4F8D2CC2
:1020B000912CA12CB12C6C2D7E2FA50194010E9496
:1020C00001148C2DD29E80191124015011098A30DF
:1020D00014F4805D01C0895CF8018083211531050D
:1020E0004105510521F0C22EE32FCA01E4CFB8010A
:1020F000C7010E940010A1960FB6F894DEBF0FBE74
:10210000CDBFDF91CF911F910F91FF90EF90DF90A6
:10211000CF90BF90AF909F908F900895CF92DF9215
:10212000EF92FF920F931F93CF93DF93EC016A011D
:102130007B012115310579F4E881F9810190F08165
:10214000E02D642FDF91CF911F910F91FF90EF90C1
:10215000DF90CF9009942A303105E9F477FF1AC057
:102160006DE20E9418108C0144275527BA014C19C2
:102170005D096E097F092AE0CE010E943510800FAB
:10218000911FDF91CF911F910F91FF90EF90DF9002
:10219000CF9008952AE0B701A601CE01DF91CF913B
:1021A0001F910F91FF90EF90DF90CF900C9435101E
:1021B0009A01AB01662757FD6095762F0C948E101F
:1021C0004F925F926F927F928F929F92AF92BF9247
:1021D000CF92DF92EF92FF920F931F93CF93DF93F3
:1021E000EC016A017B01B22E9A01AB01C701B60175
:1021F0000E94E913882319F064ED72E027C02601DC
:102200003701E89477F82FEF3FEF4FE75FE7C3011F
:10221000B2010E94E91381110DC02FEF3FEF4FE78C
:102220005FE7C301B2010E94331218161CF468ED77
:1022300072E00CC02FEF3FEF4FE75FE4C701B6013C
:102240000E9482131816ACF46CED72E0CE01DF919F
:10225000CF911F910F91FF90EF90DF90CF90BF90A3
:10226000AF909F908F907F906F905F904F900C9465
:1022700000102FEF3FEF4FE75FECC701B6010E9460
:10228000331287FDE1CF20E030E0A901C701B6019C
:102290000E94331287FF0AC06DE2CE010E9418101F
:1022A0008C01F7FAF094F7F8F09402C000E010E027
:1022B000A12C60E070E080E09FE3AB1441F020E0EF
:1022C00030E040E251E40E943712A394F6CF9B0124
:1022D000AC01C701B6010E94CF116B017C010E94C5
:1022E000A4122B013C010E94D0129B01AC01C7013A
:1022F000B6010E94CE116B017C012AE0B301A2015C
:10230000CE010E943510080F191FBB2039F06FE76E
:1023100072E0CE010E940010080F191F7B2C77205D
:1023200041F120E030E040E251E4C701B6010E94F3
:1023300086136B017C010E949F124B01AA2497FC1B
:10234000A094BA2C2AE030E0B501A401CE010E948D
:102350008E10080F191FC501B4010E94D2129B01F3
:10236000AC01C701B6010E94CE116B017C017A94C9
:10237000D6CFC801DF91CF911F910F91FF90EF90C1
:10238000DF90CF90BF90AF909F908F907F906F9095
:102390005F904F9008950C94E01008955058BB271B
:1023A000AA270ED075C166D130F06BD120F031F480
:1023B0009F3F11F41EF45BC10EF4E095E7FB51C1A1
:1023C000E92F77D180F3BA1762077307840795075F
:1023D00018F071F49EF58FC10EF4E0950B2EBA2F14
:1023E000A02D0B01B90190010C01CA01A00111241B
:1023F000FF27591B99F0593F50F4503E68F11A16C7
:10240000F040A22F232F342F4427585FF3CF469557
:1024100037952795A795F0405395C9F77EF41F1679
:10242000BA0B620B730B840BBAF09150A1F0FF0F43
:10243000BB1F661F771F881FC2F70EC0BA0F621F2F
:10244000731F841F48F4879577956795B795F7951F
:102450009E3F08F0B3CF9395880F08F09927EE0FB1
:10246000979587950895D9D008F481E008950CD008
:102470000FC107D140F0FED030F021F45F3F19F0DA
:10248000F0C0511139C1F3C014D198F39923C9F3A5
:102490005523B1F3951B550BBB27AA27621773076A
:1024A000840738F09F5F5F4F220F331F441FAA1F1E
:1024B000A9F333D00E2E3AF0E0E830D091505040DE
:1024C000E695001CCAF729D0FE2F27D0660F771F8C
:1024D000881FBB1F261737074807AB07B0E809F06E
:1024E000BB0B802DBF01FF2793585F4F2AF09E3F03
:1024F000510568F0B6C000C15F3FECF3983EDCF3D5
:10250000869577956795B795F7959F5FC9F7880F7B
:10251000911D9695879597F90895E1E0660F771FCD
:10252000881FBB1F621773078407BA0720F0621B5E
:10253000730B840BBA0BEE1F88F7E095089504D057
:102540006894B111D9C00895BCD088F09F5790F01D
:10255000B92F9927B751A0F0D1F0660F771F881FC8
:10256000991F1AF0BA95C9F712C0B13081F0C3D0E3
:10257000B1E00895C0C0672F782F8827B85F39F081
:10258000B93FCCF3869577956795B395D9F73EF427
:1025900090958095709561957F4F8F4F9F4F0895CF
:1025A000E89409C097FB3EF49095809570956195ED
:1025B0007F4F8F4F9F4F9923A9F0F92F96E9BB27A3
:1025C0009395F695879577956795B795F111F8CF1F
:1025D000FAF4BB0F11F460FF1BC06F5F7F4F8F4F8A
:1025E0009F4F16C0882311F096E911C0772321F080
:1025F0009EE8872F762F05C0662371F096E8862F18
:1026000070E060E02AF09A95660F771F881FDAF76E
:10261000880F9695879597F90895990F0008550F9B
:10262000AA0BE0E8FEEF16161706E807F907C0F058
:1026300012161306E407F50798F0621B730B840B60
:10264000950B39F40A2661F0232B242B252B21F43A
:1026500008950A2609F4A140A6958FEF811D811DDA
:10266000089597F99F6780E870E060E008959FEF14
:1026700080EC089500240A94161617061806090619
:10268000089500240A9412161306140605060895E8
:10269000092E0394000C11F4882352F0BB0F40F470
:1026A000BF2B11F460FF04C06F5F7F4F8F4F9F4FB0
:1026B000089557FD9058440F551F59F05F3F71F032
:1026C0004795880F97FB991F61F09F3F79F0879599
:1026D0000895121613061406551FF2CF4695F1DF22
:1026E00008C0161617061806991FF1CF86957105B2
:1026F000610508940895E894BB2766277727CB01E6
:1027000097F908958ADF08F48FEF08950BD0C0CFB2
:10271000B1DF28F0B6DF18F0952309F0A2CFA7CFDC
:102720001124EACFC6DFA0F3959FD1F3950F50E0B7
:10273000551F629FF001729FBB27F00DB11D639F73
:10274000AA27F00DB11DAA1F649F6627B00DA11D19
:10275000661F829F2227B00DA11D621F739FB00DBF
:10276000A11D621F839FA00D611D221F749F33272F
:10277000A00D611D231F849F600D211D822F762FC8
:102780006A2F11249F5750408AF0E1F088234AF0C5
:10279000EE0FFF1FBB1F661F771F881F9150504011
:1027A000A9F79E3F510570F05CCFA6CF5F3FECF3D9
:1027B000983EDCF3869577956795B795F795E795FD
:1027C0009F5FC1F7FE2B880F911D9695879597F90E
:1027D000089523DF880B990B089597FB072E16F4B5
:1027E000009407D077FD09D00E94421407FC05D061
:1027F0003EF4909581959F4F0895709561957F4F18
:102800000895A1E21A2EAA1BBB1BFD010DC0AA1F31
:10281000BB1FEE1FFF1FA217B307E407F50720F049
:10282000A21BB30BE40BF50B661F771F881F991FC4
:102830001A9469F760957095809590959B01AC010D
:10284000BD01CF010895052E97FB1EF400940E9450
:102850003A1457FD07D00E94011407FC03D04EF430
:102860000C943A1450954095309521953F4F4F4F19
:102870005F4F089590958095709561957F4F8F4F2C
:102880009F4F0895AA1BBB1B51E107C0AA1FBB1F86
:10289000A617B70710F0A61BB70B881F991F5A95EC
:1028A000A9F780959095BC01CD010895EE0FFF1F0B
:1028B0000590F491E02D099481E090E0F8940C9457
:1028C000611410E0C8ECD0E004C0FE010E9458146E
:0C28D0002296CA3CD107C9F7F894FFCF4C
:1028DC0009000A00080010000F000E0001484541D5
:1028EC004C54482121210054656D70203A2000423F
:1028FC00504D20203A20006D6D4867203A2000533F
:10290C00544154453A2000414C455254494E4720BD
:10291C00444F430041542B434D47463D310D00413C
:10292C00542B434D47533D222B32353437313839F4
:10293C003533363139220D00414C45525421212179
:10294C0020412070617469656E742069732073680E
:10295C006F77696E67207369676E73206F66207579
:10296C006E6865616C7468696E6573732E20506C4B
:10297C0065617365206164766973650D00506174DF
:10298C0069656E742050686F6E65204E756D62655A
:10299C0072200D00202B3235343732353434373732
:1029AC003634200D00564954414C53200D004250F2
:1029BC004D3A200D0054454D504552415455524509
:1029CC003A200D00535953544F4C3A200D004449B2
:1029DC004153544F4C200D00444F4320414C455221
:1029EC005445440050524553535552452020202005
:1029FC0020202020005741524E494E4720202020B5
:102A0C0020202020200042504D202020202020205B
:102A1C00202020202020200054454D504552415468
:102A2C005552452020202020004845414C544859FF
:102A3C00202020202020002F002042504D2020203C
:102A4C0020202000434F4D505554494E472E2E2EDA
:102A5C0000000000000D05E004B504BD04D004DF47
:102A6C000400000000A806D80F1107A606A706DC74
:102A7C000D00000000A806D80F1107A6079207B694
:102A8C000800000000C009D80F2C0A9F09120A4444
:102A9C000A000000005C0ED80FDE0DF70DE90D3AB0
:102AAC000E0D0A006E616E00696E66006F76660030
:00000001FF
